:100000000C9434000C945B070C9446000C9446004E
:100010000C9446000C9446000C9446000C94460048
:100020000C9446000C94E1070C9446000C94460096
:100030000C9446000C9446000C9446000C94460028
:100040000C9423080C9446000C9410080C94460061
:100050000C9446000C9446000C9446000C94460008
:100060000C9446000C94460011241FBECFEFD8E03C
:10007000DEBFCDBF21E0A0E0B1E001C01D92A532FE
:10008000B207E1F70E94AA060C942C0A0C94000017
:10009000CF93DF9300D000D0CDB7DEB79A838983AA
:1000A0007C836B8389819A812B813C81FC01318324
:1000B000208385EC90E02B813C81232F3327FC01AA
:1000C000208384EC90E02B81FC01208381EC90E084
:1000D00021EC30E0F90120812861FC01208381ECD2
:1000E00090E021EC30E0F90120812068FC012083C0
:1000F00082EC90E022EC30E0F90120812A60FC01E2
:10010000208300000F900F900F900F90DF91CF9100
:100110000895CF93DF9300D000D0CDB7DEB79C8396
:100120008B831A8219820FC02B813C8189819A812D
:10013000820F931FFC0180810E94B60089819A8101
:1001400001969A8389838B819C810E94230A9C015A
:1001500089819A818217930738F389819A810F9058
:100160000F900F900F90DF91CF910895CF93DF9371
:100170001F92CDB7DEB78983000080EC90E0FC01D0
:100180008081882F90E080729927892BB1F386ECCB
:1001900090E02981FC01208300000F90DF91CF9136
:1001A0000895CF93DF9300D0CDB7DEB79A838983CC
:1001B00089819A81FC0114821582168217828981B5
:1001C0009A81FC01108611861286138689819A8194
:1001D000FC01148615861686178689819A81FC0192
:1001E000108289819A810E94EB0200000F900F908B
:1001F000DF91CF910895CF92DF92EF92FF92CF934C
:10020000DF9300D0CDB7DEB79A83898389819A8145
:10021000FC018081882F90E0019709F0CDC1898190
:100220009A81FC0184819581A681B78129813A81D7
:10023000F9012089318942895389BC01CD010E948D
:100240005308DC01CB0129813A81F901848395832C
:10025000A683B78389819A81FC01C480D580E6801A
:10026000F78089819A81FC018181882F90E0092E95
:10027000000CAA0BBB0BBC01CD010E946E09DC0176
:10028000CB019C01AD01C701B6010E945208DC01FF
:10029000CB01BC01CD010E943609DC01CB019923C1
:1002A0000CF444C089819A81FC01C480D580E68029
:1002B000F78089819A81FC018181882F90E0092E45
:1002C000000CAA0BBB0BBC01CD010E946E09DC0126
:1002D000CB019C01AD01C701B6010E945208DC01AF
:1002E000CB01BC01CD010E943609DC01CB011816FF
:1002F0001906E4F089819A81FC018181882F90E0C0
:10030000A0E0B0E0BC01CD010E946C09DC01CB0192
:1003100029813A81F90184839583A683B7838981F2
:100320009A81FC01108A118A128A138A89819A8122
:10033000FC0180859185A285B38529813A81F901E7
:100340002489358946895789BC01CD010E9453080B
:10035000DC01CB0129813A81F90180879187A2874D
:10036000B38789819A81FC01C084D184E284F384BB
:1003700089819A81FC018281882F90E0092E000CEE
:10038000AA0BBB0BBC01CD010E946E09DC01CB01A5
:100390009C01AD01C701B6010E945208DC01CB01EE
:1003A000BC01CD010E943609DC01CB0199230CF47C
:1003B00044C089819A81FC01C084D184E284F384A1
:1003C00089819A81FC018281882F90E0092E000C9E
:1003D000AA0BBB0BBC01CD010E946E09DC01CB0155
:1003E0009C01AD01C701B6010E945208DC01CB019E
:1003F000BC01CD010E943609DC01CB01181619069B
:10040000E4F089819A81FC018281882F90E0A0E04C
:10041000B0E0BC01CD010E946C09DC01CB01298157
:100420003A81F90180879187A287B38789819A8170
:10043000FC01148A158A168A178A89819A81FC011F
:1004400084859585A685B78529813A81F901208D16
:10045000318D428D538DBC01CD010E945308DC01CA
:10046000CB0129813A81F90184879587A687B787CF
:1004700089819A81FC01C484D584E684F7848981CA
:100480009A81FC018381882F90E0092E000CAA0B31
:10049000BB0BBC01CD010E946E09DC01CB019C01AC
:1004A000AD01C701B6010E945208DC01CB01BC01BD
:1004B000CD010E943609DC01CB0199230CF444C024
:1004C00089819A81FC01C484D584E684F78489817A
:1004D0009A81FC018381882F90E0092E000CAA0BE1
:1004E000BB0BBC01CD010E946E09DC01CB019C015C
:1004F000AD01C701B6010E945208DC01CB01BC016D
:10050000CD010E943609DC01CB0118161906E4F072
:1005100089819A81FC018381882F90E0A0E0B0E07E
:10052000BC01CD010E946C09DC01CB0129813A811B
:10053000F90184879587A687B78789819A81FC010D
:10054000108E118E128E138E89819A81FC01808902
:100550009189A289B38920E030E0A901BC01CD01D5
:100560000E94BF08882309F028C089819A81FC0174
:1005700084899589A689B78920E030E0A901BC016A
:10058000CD010E94BF08882309F017C089819A8194
:10059000FC01808D918DA28DB38D20E030E0A9010A
:1005A000BC01CD010E94BF08882309F006C08981E3
:1005B0009A81FC01108201C0000089819A810E9409
:1005C000EB0200000F900F90DF91CF91FF90EF9022
:1005D000DF90CF900895CF92DF92EF92FF920F932A
:1005E0001F93CF93DF9300D0CDB7DEB79A83898373
:1005F00089819A81FC01C480D580E680F7808AE8F1
:1006000090E0FC0180819181CC01A0E0B0E0BC01D0
:10061000CD010E946C09DC01CB019C01AD01C70139
:10062000B6010E94BF088823A9F10AE810E0898179
:100630009A81FC0184819581A681B781BC01CD019D
:100640000E943D09DC01CB01F801918380838981FF
:100650009A81FC0184819581A681B78120E030E0F8
:10066000A901BC01CD010E941E0A181654F484E2AF
:1006700090E024E230E0F90120812460FC01208335
:1006800009C084E290E024E230E0F90120812B7F70
:10069000FC01208389819A81FC01C084D184E28499
:1006A000F38488E890E0FC0180819181CC01A0E096
:1006B000B0E0BC01CD010E946C09DC01CB019C01C2
:1006C000AD01C701B6010E94BF088823A9F108E85F
:1006D00010E089819A81FC0180859185A285B3858E
:1006E000BC01CD010E943D09DC01CB01F8019183E1
:1006F000808389819A81FC0180859185A285B3855B
:1007000020E030E0A901BC01CD010E941E0A1816AC
:1007100054F484E290E024E230E0F9012081226088
:10072000FC01208309C084E290E024E230E0F9017A
:1007300020812D7FFC01208389819A81FC01C48462
:10074000D584E684F78487E490E0FC018081882FDB
:1007500090E0092E000CAA0BBB0BBC01CD010E943E
:100760006E09DC01CB019C01AD01C701B6010E94FD
:10077000BF08882309F434C007E410E089819A8116
:10078000FC0184859585A685B785BC01CD010E94B5
:100790003D09DC01CB01F801808389819A81FC014C
:1007A00084859585A685B78520E030E0A901BC0148
:1007B000CD010E941E0A181654F48AE290E02AE243
:1007C00030E0F90120812064FC01208309C08AE225
:1007D00090E02AE230E0F90120812F7BFC012083A8
:1007E00000000F900F90DF91CF911F910F91FF901C
:1007F000EF90DF90CF900895CF93DF9300D000D09B
:100800001F92CDB7DEB79A8389836B834C832D8388
:100810008B81882F90E0A0E0B0E0BC01CD010E9468
:100820006C09DC01CB0129813A81F901848395832C
:10083000A683B7838C81882F90E0A0E0B0E0BC0154
:10084000CD010E946C09DC01CB0129813A81F901BB
:1008500080879187A287B3878D81882F90E0A0E061
:10086000B0E0BC01CD010E946C09DC01CB01298103
:100870003A81F90184879587A687B78789819A810C
:100880000E94EB0200000F900F900F900F900F90BE
:10089000DF91CF910895CF93DF93CDB7DEB729973E
:1008A0000FB6F894DEBF0FBECDBF9D838C834E8301
:1008B0005F83688779878E819F81A885B985CD01FF
:1008C000AA27BB2789838E819F81A885B985892F17
:1008D0009A2FAB2FBB278A838E818B838C819D813E
:1008E0002B814A8169810E94FC03000029960FB682
:1008F000F894DEBF0FBECDBFDF91CF910895CF92A8
:10090000DF92EF92FF920F931F93CF93DF93CDB7B8
:10091000DEB729970FB6F894DEBF0FBECDBF9A831E
:1009200089836B834C832D83EE82FF82088719872E
:100930008B81882F90E0A0E0B0E0BC01CD010E9447
:100940006C09DC01CB01BC01CD010E943D09DC0139
:10095000CB01282F89819A81FC0121838C81882FEA
:1009600090E0A0E0B0E0BC01CD010E946C09DC0188
:10097000CB01BC01CD010E943D09DC01CB01282F38
:1009800089819A81FC0122838D81882F90E0A0E0EB
:10099000B0E0BC01CD010E946C09DC01CB01BC01BF
:1009A000CD010E943D09DC01CB01282F89819A816C
:1009B000FC01238389819A81FC018181882F90E049
:1009C000092E000CAA0BBB0BBC01CD010E946E09C5
:1009D0007B018C0189819A81FC0184819581A681AA
:1009E000B7819C01AD01C801B7010E945208DC012A
:1009F000CB016C017D016E817F81888599850E9484
:100A00006C09DC01CB019C01AD01C701B6010E945C
:100A1000C408DC01CB0129813A81F901808B918BDB
:100A2000A28BB38B89819A81FC018281882F90E00F
:100A3000092E000CAA0BBB0BBC01CD010E946E0954
:100A40007B018C0189819A81FC0180859185A28539
:100A5000B3859C01AD01C801B7010E945208DC01B9
:100A6000CB016C017D016E817F81888599850E9413
:100A70006C09DC01CB019C01AD01C701B6010E94EC
:100A8000C408DC01CB0129813A81F901848B958B63
:100A9000A68BB78B89819A81FC018381882F90E096
:100AA000092E000CAA0BBB0BBC01CD010E946E09E4
:100AB0007B018C0189819A81FC0184859585A685BD
:100AC000B7859C01AD01C801B7010E945208DC0145
:100AD000CB016C017D016E817F81888599850E94A3
:100AE0006C09DC01CB019C01AD01C701B6010E947C
:100AF000C408DC01CB0129813A81F901808F918FF3
:100B0000A28FB38F89819A8121E0FC0120830000AC
:100B100029960FB6F894DEBF0FBECDBFDF91CF91FF
:100B20001F910F91FF90EF90DF90CF900895EF927B
:100B3000FF920F931F93CF93DF93CDB7DEB72D971F
:100B40000FB6F894DEBF0FBECDBF9D838C834E835E
:100B50005F83688779870A871B872C873D878E810B
:100B60009F81A885B985CD01AA27BB2789838E815E
:100B70009F81A885B985892F9A2FAB2FBB278A83A0
:100B80008E818B838A859B85AC85BD85EC81FD81BB
:100B90007C018D012B814A816981CF010E947F04F4
:100BA00000002D960FB6F894DEBF0FBECDBFDF91CB
:100BB000CF911F910F91FF90EF9008950F931F9386
:100BC000CF93DF9300D0CDB7DEB79A838983898135
:100BD0009A81FC0184819581A681B78120E030E073
:100BE000A901BC01CD010E94BF08882301F58981BC
:100BF0009A81FC0180859185A285B38520E030E053
:100C0000A901BC01CD010E94BF08882381F489811C
:100C10009A81FC0184859585A685B78520E030E022
:100C2000A901BC01CD010E94BF08882361F0898120
:100C30009A8108EE13E020E030E040E050E0BA0195
:100C40000E9497050CC089819A8108EE13E020E08C
:100C500030E04FEF5FEF6FEF70E00E94970500000C
:100C60000F900F90DF91CF911F910F910895CF9327
:100C7000DF9300D0CDB7DEB79A83898389819A81CB
:100C8000FC01108211821282138289819A81FC01F7
:100C9000148289819A81FC01168289819A81FC01E2
:100CA000158200000F900F90DF91CF910895CF93A0
:100CB000DF9300D0CDB7DEB79A83898389819A818B
:100CC000FC01108211821282138289819A8121E0B3
:100CD000FC01248389819A81FC01168280E790E0DF
:100CE00021E0FC01208381EB90E021EB30E0F90171
:100CF00020812760FC01208300000F900F90DF917E
:100D0000CF910895CF93DF9300D0CDB7DEB79A830C
:100D1000898380E790E020E730E0F90120812E7F91
:100D2000FC01208381EB90E021EB30E0F901208190
:100D3000287FFC01208389819A81FC0114828981AA
:100D40009A8121E0FC01268300000F900F90DF9133
:100D5000CF910895EF92FF920F931F93CF93DF935C
:100D6000CDB7DEB78CE191E00E94370680E091E0DC
:100D70000E94D10067E670E083E291E00E944800A3
:100D80008AE290E02AE230E0F90120812064FC014F
:100D900020838DE390E02DE330E0F9012081216094
:100DA000FC01208389E690E029E630E0F90120810A
:100DB0002360FC01208384E490E024E430E0F90126
:100DC00020812360FC01208384E490E024E430E06F
:100DD000F90120812068FC01208385E490E025E46E
:100DE00030E0F90120812360FC01208385E490E05C
:100DF00025E430E0F90120812B7FFC0120838EE681
:100E000090E02EE630E0F90120812160FC01208392
:100E100084E290E024E230E0F90120812660FC01C8
:100E2000208381E890E021E830E0F901208123600F
:100E3000FC01208380E890E020E830E0F901208187
:100E40002160FC01208381E890E021E830E0F90195
:100E500020812860FC01208380E890E020E830E0D9
:100E6000F90120812068FC01208380E890E020E8DF
:100E700030E0F90120812062FC01208378944FEF5B
:100E80005FEF6FEF70E080E091E00E944B0418EE9E
:100E9000E12E13E0F12E00E010E020E040E060E001
:100EA00080E091E00E947F04809122018823E1F399
:100EB00010922201F9CF1F920F9200905F000F92C3
:100EC00011242F933F934F935F936F937F938F934F
:100ED0009F93AF93BF93EF93FF93CF93DF931F92B3
:100EE000CDB7DEB780912001882349F48CE191E0F1
:100EF0000E94570682EB90E0FC0110824CC082EB0E
:100F000090E0FC018081898382EB90E0FC011082FB
:100F100089818E3148F18981893230F580911C01B7
:100F200090911D01A0911E01B0911F01880F991F82
:100F3000AA1FBB1F80931C0190931D01A0931E014B
:100F4000B0931F0180911C0190911D01A0911E0181
:100F5000B0911F01816080931C0190931D01A093AB
:100F60001E01B0931F0117C089818531A0F48091C3
:100F70001C0190911D01A0911E01B0911F01880FCD
:100F8000991FAA1FBB1F80931C0190931D01A09362
:100F90001E01B0931F0100000F90DF91CF91FF91D0
:100FA000EF91BF91AF919F918F917F916F915F91E1
:100FB0004F913F912F910F9000925F000F901F90E3
:100FC00018951F920F9200905F000F9211242F939B
:100FD0003F934F935F936F937F938F939F93AF93C1
:100FE000BF93EF93FF93CF93DF93CDB7DEB78CE141
:100FF00091E00E9482060000DF91CF91FF91EF9176
:10100000BF91AF919F918F917F916F915F914F9120
:101010003F912F910F9000925F000F901F901895B5
:101020001F920F9200905F000F921124CF93DF93D5
:10103000CDB7DEB70000DF91CF910F9000925F0037
:101040000F901F9018951F920F9200905F000F92C3
:1010500011242F933F934F935F936F937F938F93BD
:101060009F93AF93BF93EF93FF93CF93DF93CDB74E
:10107000DEB780E091E00E94FB000000DF91CF919D
:10108000FF91EF91BF91AF919F918F917F916F9160
:101090005F914F913F912F910F9000925F000F90C1
:1010A0001F9018955058BB27AA270E946A080C94D5
:1010B000E4090E94D60938F00E94DD0920F039F4D5
:1010C0009F3F19F426F40C94D3090EF4E095E7FB46
:1010D0000C94CD09E92F0E94F50958F3BA1762075D
:1010E00073078407950720F079F4A6F50C94170A86
:1010F0000EF4E0950B2EBA2FA02D0B01B901900133
:101100000C01CA01A0011124FF27591B99F0593F76
:1011100050F4503E68F11A16F040A22F232F342FBE
:101120004427585FF3CF469537952795A795F0400C
:101130005395C9F77EF41F16BA0B620B730B840B21
:10114000BAF09150A1F0FF0FBB1F661F771F881FD9
:10115000C2F70EC0BA0F621F731F841F48F4879531
:1011600077956795B795F7959E3F08F0B0CF939523
:10117000880F08F09927EE0F9795879508950E949C
:10118000A90908F481E008950E94D8080C94E409A4
:101190000E94DD0958F00E94D60940F029F45F3F13
:1011A00029F00C94CD0951110C94180A0C94D30910
:1011B0000E94F50968F39923B1F3552391F3951B28
:1011C000550BBB27AA2762177307840738F09F5F68
:1011D0005F4F220F331F441FAA1FA9F335D00E2ED5
:1011E0003AF0E0E832D091505040E695001CCAF742
:1011F0002BD0FE2F29D0660F771F881FBB1F261705
:1012000037074807AB07B0E809F0BB0B802DBF01DB
:10121000FF2793585F4F3AF09E3F510578F00C94AA
:10122000CD090C94180A5F3FE4F3983ED4F38695F9
:1012300077956795B795F7959F5FC9F7880F911DCB
:101240009695879597F90895E1E0660F771F881FB7
:10125000BB1F621773078407BA0720F0621B730B6A
:10126000840BBA0BEE1F88F7E09508950E943D09A4
:101270006894B1110C94180A08950E94FD0988F031
:101280009F5798F0B92F9927B751B0F0E1F0660F4A
:10129000771F881F991F1AF0BA95C9F714C0B1308B
:1012A00091F00E94170AB1E008950C94170A672F75
:1012B000782F8827B85F39F0B93FCCF386957795BA
:1012C0006795B395D9F73EF49095809570956195A3
:1012D0007F4F8F4F9F4F0895E89409C097FB3EF4CE
:1012E00090958095709561957F4F8F4F9F4F992373
:1012F000A9F0F92F96E9BB279395F69587957795F1
:101300006795B795F111F8CFFAF4BB0F11F460FFB0
:101310001BC06F5F7F4F8F4F9F4F16C0882311F008
:1013200096E911C0772321F09EE8872F762F05C01C
:10133000662371F096E8862F70E060E02AF09A95B7
:10134000660F771F881FDAF7880F9695879597F9AC
:101350000895990F0008550FAA0BE0E8FEEF161646
:101360001706E807F907C0F012161306E407F50799
:1013700098F0621B730B840B950B39F40A2661F00D
:10138000232B242B252B21F408950A2609F4A140B0
:10139000A6958FEF811D811D089597F99F6780E8BD
:1013A00070E060E008959FEF80EC089500240A94B7
:1013B0001616170618060906089500240A94121630
:1013C0001306140605060895092E0394000C11F463
:1013D000882352F0BB0F40F4BF2B11F460FF04C010
:1013E0006F5F7F4F8F4F9F4F089557FD9058440F69
:1013F000551F59F05F3F71F04795880F97FB991F74
:1014000061F09F3F79F08795089512161306140630
:10141000551FF2CF4695F1DF08C0161617061806BD
:10142000991FF1CF86957105610508940895E89498
:10143000BB2766277727CB0197F908950E94A90952
:1014400008F48FEF0895FC0101900020E9F78095E2
:0C14500090958E0F9F1F0895F894FFCF19
:00000001FF
